:10AD0000C3D3B8C339ADC35EB7C346B7C352B7C325
:10AD10007EB7C3D7B7C3C0B7C30CAEC31EAEC38123
:10AD2000AEC387AEC38DAEC393AEC398AEC389B76F
:10AD3000C317AFC38CAEC300003100013E0132A582
:10AD4000AD26002E00CDAFAFD250AD7600C339ADE9
:10AD5000018000CD8DAE3EC33200003205002103DC
:10AD6000AD22010021069F220600AF323EB7324DD0
:10AD7000AF323AB73AA5ADB721A9ADCA81AD21AB83
:10AD8000AD5E23561A3C2107974F0600CDD5AF3A4A
:10AD9000A5ADB73AA8ADCA9AAD1F1F3A04004FDA65
:10ADA0000097C3039700005900ADADAEAD0101009F
:10ADB00020A1B03BB2020B020300000C00600010A7
:02ADC000001180
:10AE00000036AFADB5AD3FB0A6AD00003A4DAFB71F
:10AE1000C217AEAF323EB7010000CD81AEC9793264
:10AE200035B7FE04D2F8AF7BE601C262AE612E02F6
:10AE3000CDAFAF7CB5CAF8AFE5CD74AED173237298
:10AE40002371237EB7CC21B0EB7932A6AEAF0DCA09
:10AE500058AE07F601C34EAE32E4AE3A35B73244CF
:10AE6000B7C9612E03CDAFAFCD74AE5E2356234E6E
:10AE7000EBC349AE3A35B707075F1600212FB0196B
:10AE8000C960692236B7C960692233B7C9606922CF
:10AE9000F5AEC9AFCDA2AEC979320EAF3E01CDA29B
:10AEA000AEC932F8AE06002A33B77CE6804F7CE6A6
:10AEB0007F672B05CAC1AEB77C1F677D1F6FC3B309
:10AEC000AE237CB1672238B72135B7113BB70606F0
:10AED00005CADFAE1ABE2313CAD0AECD21AFD83A11
:10AEE00033B73DE6006F2600292929292929291190
:10AEF0000EB819EB2100003E00A7C204AFCDD2AFBF
:10AF00003A3AB7C9EBCDD2AF3E01324DAF3E003D2C
:10AF10003E00C0CD4CAFC93A35B7672E01CDAFAFBB
:10AF2000C9CD4CAFD81135B7213BB7010500CDD500
:10AF3000AF3AF8AEB7CA43AF3A0EAFD602C83AA698
:10AF4000AE3DC83E083286AFCD59AFC93E00B7C846
:10AF50003E093286AFCD59AFC9CD22B0F3AF324DE5
:10AF6000AF060AC52E03CDABAF2A40B7444D2E0520
:10AF7000CDABAF2A42B7444D2E06CDABAF010EB8D4
:10AF80002E07CDABAF2E00CDABAFC13E00D2A7AFE9
:10AF900005373EFFCAA7AF78FE05C263AFC52E04D2
:10AFA000CDABAFC1C363AF323AB7C93A3BB767D590
:10AFB000C5E57C11B1AD4F1A6F131A67137996D29C
:10AFC000B6AF23D17B075F1600197E23666F79C168
:10AFD000D1E9018000AFC603E2E6AF1A7713230B75
:10AFE00078B1C2DBAFC9EBEDB0EBC97E23B7C8E5E2
:10AFF0004FCD0CADE1C3EBAF2100003A0400E60FEA
:10B000004F3A35B7B9C03A44B74F3A0400E6F0B109
:10B01000320400C9210000C96F26002929292919F5
:10B02000C9C92A3CB72240B72A3EB72242B7C90055
:10B030000000000000000000000000000000000010
:10B04000504D0010010000000010014D00100100E3
:10B0500000000010014D0010010000000010014D23
:10B060000010010000000010012800AA00000000EC
:10B0700000FF012800AA0000000000FF012800AA2C
:10B080000000000000FF012800AA0000000000FFEF
:10B09000012ABEB5260029545D2929191141B0198C
:10B0A000C902B8B026B142B1CDB1F1B4FBB400B51C
:10B0B00006B50CB511B514B0CDE3B421E1B0112241
:10B0C00000CD8AB5C2BBB03AECB02AF8B0B5FE40AC
:10B0D000C2BBB0010003110EB82100AACDD5AFAF9D
:10B0E000C9230095002900000004B100002300A23C
:10B0F00000290100001EB10000230EB8002001034A
:10B1000000002500FFFFFFFF00000000000000001E
:10B11000000000000000000000000000000000002F
:10B12000FFFFFFFFFFFF033AD4B5E608CA3BB13A81
:10B13000FAB191D23BB12F3C4F0680692600196EBF
:10B1400060C9CDE3B4CDBCB4DAF8AFCD63B5DAF8FD
:10B15000AFF5E640CA7CB1F12101002238B72322C5
:10B1600036B7AF32F8AECD21AFDAF8AFCD91B0231C
:10B170003600CD23B5CD63B5DAF8AFF5F132D4B5ED
:10B18000CD80B577E60307F55F160021DDB519E53B
:10B19000CDC3B1D1010200CDD5AF11080019E53AF8
:10B1A000D4B5E60811B3B6CAB0B1CDE1B111F3B66A
:10B1B000EBF1F10707074F060009EB732372210F2C
:10B1C00000194E3ABEB511FBB1CD18B0C9CDE3B4EC
:10B1D000CDC3B1110A00197E23666F7E0F32FAB11A
:10B1E000C9CD91B023360023366623360011050001
:10B1F0001936FF233601CD23B5C900000000000039
:10B2000000000018BC000098BCD8BC000000000082
:10B2100000000018BC000023BD63BD00000000005A
:10B2200000000018BC0000AEBDEEBD000000000034
:10B2300000000018BC000039BE79BE0252B253B201
:10B2400071B231B3F1B436B375B306B581B387B318
:10B2500014B0C93AD4B5E60421F3B3CA6CB23AD4F7
:10B26000B5E62021CBB3C26CB221B7B3096E26007C
:10B27000C9CD31B3CDBCB4DAF8AFCD63B5DAF8AF30
:10B2800032D4B5CD80B577E604C2B7B2CD04B321D0
:10B29000A7B80619AF5F2BAE57B35F7A05C296B257
:10B2A000B7C2B2B2B3CAB2B23A8FB8E6043EA9C2CC
:10B2B000BDB23EA1C3BDB2CD04B33A6AB8B7CC1A91
:10B2C000B3FEE5CC1AB34F2196B37EB7CAF8AFB937
:10B2D000CADAB223232323C3CAB2233AD4B5B6327F
:10B2E000D4B5E5CD80B577E1237E23666FE5CD2526
:10B2F000B3110A0019D1732372CD25B33AD4B5E640
:10B30000033C4FC92101002238B72B2236B7AF3298
:10B31000F8AECD21AFD0E1C3F8AF3AD4B5E6203EC8
:10B3200010C83E90C93ABEB5D604111CB4CD18B0B1
:10B33000C9C604C3E3B4AF321BB421D4B57EE6045E
:10B34000CA61B37EE608CAFBB47EE610CAFBB479D4
:10B35000FE23DAFBB43E45914F3E80321BB4C3FB63
:10B36000B47EE608CAFBB4791F4FD2FBB43E8032EC
:10B370001BB4C3FBB43AD4B5E604CA00B50DC30090
:10B38000B5CD8DB3C30CB5CD8DB3C311B53A1BB4D8
:10B3900021BDB5B677C910005CB490006CB4B000A4
:10B3A0007CB4F0188CB4A0007CB4D0188CB4A1008C
:10B3B0009CB4A908ACB400010203040506070809FF
:10B3C0000A0B0C0D0E0F10111213140102030415B9
:10B3D00016171805060708191A1B1C090A0B0C1D5D
:10B3E0001E1F200D0E0F10212223241112131425CD
:10B3F0002627280102030405060708191A1B1C1D2D
:10B400001E1F20090A0B0C0D0E0F102122232425CC
:10B410002627281112131415161718000000000013
:10B420000000000018BC5CB4C4BEF4BE0000000004
:10B430000000000018BC6CB40DBF3DBF0000000050
:10B440000000000018BC7CB456BF86BF000000009E
:10B450000000000018BC8CB49FBFCFBF14000307CE
:10B46000004F003F00C00010000300022800030747
:10B4700000A4003F00C00010000200032800040FD9
:10B480000151003F00800010000200032800040F5B
:10B4900001A9003F00800010000200032800040FF3
:10B4A000015E007F00C00020000200042800040F9D
:10B4B00001C200BF00E0003000020004215000364D
:10B4C00025233600D3EF1100007EB7C2D6B41B7A15
:10B4D000B3C2C9B437C9CD23B521A8B5110600CD73
:10B4E00093B5C932BEB532B0B5CD80B57E32D4B5D4
:10B4F000C9CD91B0233600CD23B5C97932BCB5C9C9
:10B5000079B032BDB5C9606922B8B5C93E20C31350
:10B51000B53E2132BBB521B7B5110A00CD8AB5378A
:10B52000C03FC93E081140132142B0F57EB7C25357
:10B53000B5E5D5352B22C3B5232322CBB5EB22C8E5
:10B54000B52323232322D0B521C2B5111100CD93F9
:10B55000B5D1E1010A0009EB01100009EBF13DC290
:10B560002BB5C921AFB5110700CD8AB537C03AB1A7
:10B57000B5E6126F3AB3B5E624B50721B2B5B6C940
:10B5800011D5B52ABEB5260019C9CD93B52B2B7E92
:10B59000FE40C93E26325000225100AF32530019FE
:10B5A00077D3EFB6CAA3B5C92E0000280125002223
:10B5B0000000000000250023000000000000000043
:10B5C0002500A100000002000000A100000008000A
:10B5D00000002500000000000000000000E5B500AC
:10B5E000B635B672B60001070D1319050B11170316
:10B5F000090F1502080E141A060C1218040A101668
:10B600000001021314252603041516272805061722
:10B6100018292A0708191A2B2C090A1B1C2D2E0B76
:10B620000C1D1E2F300D0E1F2031320F1021223322
:10B6300034111223240001020304111213142122D5
:10B64000232431323334050607081516171825262A
:10B65000272835363738090A0B0C191A1B1C292ADA
:10B660002B2C393A3B3C0D0E0F101D1E1F202D2E8A
:10B670002F30000102030405060708191A1B1C1DC0
:10B680001E1F203132333435363738090A0B0C0D82
:10B690000E0F102122232425262728393A3B3C3D32
:10B6A0003E3F401112131415161718292A2B2C2D62
:10B6B0002E2F301A00030700F2003F00C0001000D8
:10B6C0000200013400040F01F2007F00C0002000DE
:10B6D0000200023C00040F0018017F00C00020009F
:10B6E0000200034000040F002B017F00C000200077
:10B6F0000200043400040F01F2007F00C0002000AB
:10B700000200016800040F00E601FF00F0004000A5
:10B710000200027800040F003102FF00F000400038
:10B720000200038000040F005702FF00F0004000F9
:10B730000200040000000000000000000000000003
:10B74000000000000000CD5EB7CA46B7DB48E67FC8
:10B75000C901CD69B7CA52B779E67FD348C9CD745C
:10B76000B7DB4DE601C83EFFC9CD74B7DB4DE6201F
:10B77000C83EFFC911BAAD1AF601D34FC902CD892F
:10B78000B7B7CA7EB779D348C9CDB3B7DB4DE6208A
:10B79000C82ABFADDB4EA5ACC83AC1AD47DB4DE60C
:10B7A00001CAACB7DB48E67F32C1AD4778D613C2D9
:10B7B000BCB7C911BAAD1AF603D34FC93EFFC904CD
:10B7C000CDCBB7CAC0B7DB48E67FC9CDB3B7DB4D39
:10B7D000E601C83EFFC903CD00B8CAD7B7DB49FEB2
:10B7E000FFCAF2B779D3493EBFD348E3E33EFFD364
:10B7F00048C979D3483EBFD349E3E33EFFD349C9A3
:10B8000011BAAD1AD34FDB48E620C83EFFC9CD625E
:10B81000B8DB49F5CD74B7F1F5CD26B8F1F5CD68B3
:10B82000B8F1CD26B8C9E6E0070707FE07CA3EB85B
:10B830002170B8875F1600195E2356C342B82ABB31
:10B84000ADEB3E87D34B7AD3497BD3483E07D34BEE
:10B85000AFD349D34D3E03D34CDB4EDB4DDB48DB4E
:10B8600048C93ABAADD34FC93ABAADF602D34FC9B7
:10B87000170480016000300018000C000600CDB3F2
:10B88000B73E80D34B2ABDAD7CD3497DD3483E071C
:10B89000D34B3E03D34CDB48AFD3493ABAADD34F79
:10B8A000DB49FEFFCAB8B83EFFD3483EC0D34A3E8C
:10B8B0007FD3483EFFD348C93ABAADF62032BAAD7D
:10B8C000D34F3EC0D3483ABAADF610D34F3ABAADD3
:10B8D000D34FC9310001AF32A5AD32BAAD3235B761
:10B8E0003204002103AD7C3200AE2201AD3AB9AD85
:10B8F000320300AF110EBC12210FBC010900CDD5DF
:10B90000AF36FFCD0EB8CD7EB82112B9CDEBAFC3A7
:10B9100050AD801A0D0A0A4D6F72726F7720446520
:10B920007369676E732034384B2043502F4D20329B
:10B930002E322045340D0A41423A20444A2F444DCC
:10B94000412038222C2043443A20444A2F444D4180
:0AB95000203520312F34220D0A00AB
:0000000000
